{
  "_format": "hh-sol-artifact-1",
  "contractName": "GrapeMimLpVault",
  "sourceName": "contracts/test_contracts/GrapeMimLpVault.sol",
  "abi": [
    {
      "inputs": [
        {
          "internalType": "string",
          "name": "name_",
          "type": "string"
        },
        {
          "internalType": "string",
          "name": "symbol_",
          "type": "string"
        },
        {
          "internalType": "uint256",
          "name": "totalSupply_",
          "type": "uint256"
        },
        {
          "internalType": "address",
          "name": "want_",
          "type": "address"
        }
      ],
      "stateMutability": "nonpayable",
      "type": "constructor"
    },
    {
      "anonymous": false,
      "inputs": [
        {
          "indexed": true,
          "internalType": "address",
          "name": "owner",
          "type": "address"
        },
        {
          "indexed": true,
          "internalType": "address",
          "name": "spender",
          "type": "address"
        },
        {
          "indexed": false,
          "internalType": "uint256",
          "name": "value",
          "type": "uint256"
        }
      ],
      "name": "Approval",
      "type": "event"
    },
    {
      "anonymous": false,
      "inputs": [
        {
          "indexed": true,
          "internalType": "address",
          "name": "from",
          "type": "address"
        },
        {
          "indexed": true,
          "internalType": "address",
          "name": "to",
          "type": "address"
        },
        {
          "indexed": false,
          "internalType": "uint256",
          "name": "value",
          "type": "uint256"
        }
      ],
      "name": "Transfer",
      "type": "event"
    },
    {
      "inputs": [
        {
          "internalType": "address",
          "name": "owner",
          "type": "address"
        },
        {
          "internalType": "address",
          "name": "spender",
          "type": "address"
        }
      ],
      "name": "allowance",
      "outputs": [
        {
          "internalType": "uint256",
          "name": "",
          "type": "uint256"
        }
      ],
      "stateMutability": "view",
      "type": "function"
    },
    {
      "inputs": [
        {
          "internalType": "address",
          "name": "spender",
          "type": "address"
        },
        {
          "internalType": "uint256",
          "name": "amount",
          "type": "uint256"
        }
      ],
      "name": "approve",
      "outputs": [
        {
          "internalType": "bool",
          "name": "",
          "type": "bool"
        }
      ],
      "stateMutability": "nonpayable",
      "type": "function"
    },
    {
      "inputs": [
        {
          "internalType": "address",
          "name": "account",
          "type": "address"
        }
      ],
      "name": "balanceOf",
      "outputs": [
        {
          "internalType": "uint256",
          "name": "",
          "type": "uint256"
        }
      ],
      "stateMutability": "view",
      "type": "function"
    },
    {
      "inputs": [],
      "name": "decimals",
      "outputs": [
        {
          "internalType": "uint8",
          "name": "",
          "type": "uint8"
        }
      ],
      "stateMutability": "view",
      "type": "function"
    },
    {
      "inputs": [
        {
          "internalType": "address",
          "name": "spender",
          "type": "address"
        },
        {
          "internalType": "uint256",
          "name": "subtractedValue",
          "type": "uint256"
        }
      ],
      "name": "decreaseAllowance",
      "outputs": [
        {
          "internalType": "bool",
          "name": "",
          "type": "bool"
        }
      ],
      "stateMutability": "nonpayable",
      "type": "function"
    },
    {
      "inputs": [
        {
          "internalType": "uint256",
          "name": "amount",
          "type": "uint256"
        }
      ],
      "name": "deposit",
      "outputs": [],
      "stateMutability": "nonpayable",
      "type": "function"
    },
    {
      "inputs": [
        {
          "internalType": "address",
          "name": "spender",
          "type": "address"
        },
        {
          "internalType": "uint256",
          "name": "addedValue",
          "type": "uint256"
        }
      ],
      "name": "increaseAllowance",
      "outputs": [
        {
          "internalType": "bool",
          "name": "",
          "type": "bool"
        }
      ],
      "stateMutability": "nonpayable",
      "type": "function"
    },
    {
      "inputs": [],
      "name": "name",
      "outputs": [
        {
          "internalType": "string",
          "name": "",
          "type": "string"
        }
      ],
      "stateMutability": "view",
      "type": "function"
    },
    {
      "inputs": [],
      "name": "symbol",
      "outputs": [
        {
          "internalType": "string",
          "name": "",
          "type": "string"
        }
      ],
      "stateMutability": "view",
      "type": "function"
    },
    {
      "inputs": [],
      "name": "totalSupply",
      "outputs": [
        {
          "internalType": "uint256",
          "name": "",
          "type": "uint256"
        }
      ],
      "stateMutability": "view",
      "type": "function"
    },
    {
      "inputs": [
        {
          "internalType": "address",
          "name": "to",
          "type": "address"
        },
        {
          "internalType": "uint256",
          "name": "amount",
          "type": "uint256"
        }
      ],
      "name": "transfer",
      "outputs": [
        {
          "internalType": "bool",
          "name": "",
          "type": "bool"
        }
      ],
      "stateMutability": "nonpayable",
      "type": "function"
    },
    {
      "inputs": [
        {
          "internalType": "address",
          "name": "from",
          "type": "address"
        },
        {
          "internalType": "address",
          "name": "to",
          "type": "address"
        },
        {
          "internalType": "uint256",
          "name": "amount",
          "type": "uint256"
        }
      ],
      "name": "transferFrom",
      "outputs": [
        {
          "internalType": "bool",
          "name": "",
          "type": "bool"
        }
      ],
      "stateMutability": "nonpayable",
      "type": "function"
    }
  ],
  "bytecode": "0x60806040523480156200001157600080fd5b5060405162000e4238038062000e428339810160408190526200003491620002f1565b8351620000499060039060208701906200017e565b5082516200005f9060049060208601906200017e565b506200006c338362000096565b600580546001600160a01b0319166001600160a01b039290921691909117905550620003e9915050565b6001600160a01b038216620000f15760405162461bcd60e51b815260206004820152601f60248201527f45524332303a206d696e7420746f20746865207a65726f206164647265737300604482015260640160405180910390fd5b806002600082825462000105919062000386565b90915550506001600160a01b038216600090815260208190526040812080548392906200013490849062000386565b90915550506040518181526001600160a01b038316906000907fddf252ad1be2c89b69c2b068fc378daa952ba7f163c4a11628f55a4df523b3ef9060200160405180910390a35050565b8280546200018c90620003ad565b90600052602060002090601f016020900481019282620001b05760008555620001fb565b82601f10620001cb57805160ff1916838001178555620001fb565b82800160010185558215620001fb579182015b82811115620001fb578251825591602001919060010190620001de565b50620002099291506200020d565b5090565b5b808211156200020957600081556001016200020e565b634e487b7160e01b600052604160045260246000fd5b600082601f8301126200024c57600080fd5b81516001600160401b038082111562000269576200026962000224565b604051601f8301601f19908116603f0116810190828211818310171562000294576200029462000224565b81604052838152602092508683858801011115620002b157600080fd5b600091505b83821015620002d55785820183015181830184015290820190620002b6565b83821115620002e75760008385830101525b9695505050505050565b600080600080608085870312156200030857600080fd5b84516001600160401b03808211156200032057600080fd5b6200032e888389016200023a565b955060208701519150808211156200034557600080fd5b5062000354878288016200023a565b60408701516060880151919550935090506001600160a01b03811681146200037b57600080fd5b939692955090935050565b60008219821115620003a857634e487b7160e01b600052601160045260246000fd5b500190565b600181811c90821680620003c257607f821691505b602082108103620003e357634e487b7160e01b600052602260045260246000fd5b50919050565b610a4980620003f96000396000f3fe608060405234801561001057600080fd5b50600436106100b45760003560e01c806370a082311161007157806370a082311461014157806395d89b411461016a578063a457c2d714610172578063a9059cbb14610185578063b6b55f2514610198578063dd62ed3e146101ad57600080fd5b806306fdde03146100b9578063095ea7b3146100d757806318160ddd146100fa57806323b872dd1461010c578063313ce5671461011f578063395093511461012e575b600080fd5b6100c16101c0565b6040516100ce919061084c565b60405180910390f35b6100ea6100e53660046108bd565b610252565b60405190151581526020016100ce565b6002545b6040519081526020016100ce565b6100ea61011a3660046108e7565b61026a565b604051601281526020016100ce565b6100ea61013c3660046108bd565b61028e565b6100fe61014f366004610923565b6001600160a01b031660009081526020819052604090205490565b6100c16102b0565b6100ea6101803660046108bd565b6102bf565b6100ea6101933660046108bd565b61033f565b6101ab6101a6366004610945565b61034d565b005b6100fe6101bb36600461095e565b6103d6565b6060600380546101cf90610991565b80601f01602080910402602001604051908101604052809291908181526020018280546101fb90610991565b80156102485780601f1061021d57610100808354040283529160200191610248565b820191906000526020600020905b81548152906001019060200180831161022b57829003601f168201915b5050505050905090565b600033610260818585610401565b5060019392505050565b600033610278858285610525565b61028385858561059f565b506001949350505050565b6000336102608185856102a183836103d6565b6102ab91906109cb565b610401565b6060600480546101cf90610991565b600033816102cd82866103d6565b9050838110156103325760405162461bcd60e51b815260206004820152602560248201527f45524332303a2064656372656173656420616c6c6f77616e63652062656c6f77604482015264207a65726f60d81b60648201526084015b60405180910390fd5b6102838286868403610401565b60003361026081858561059f565b6005546040516323b872dd60e01b8152336004820152306024820152604481018390526001600160a01b03909116906323b872dd906064016020604051808303816000875af11580156103a4573d6000803e3d6000fd5b505050506040513d601f19601f820116820180604052508101906103c891906109f1565b506103d3338261076d565b50565b6001600160a01b03918216600090815260016020908152604080832093909416825291909152205490565b6001600160a01b0383166104635760405162461bcd60e51b8152602060048201526024808201527f45524332303a20617070726f76652066726f6d20746865207a65726f206164646044820152637265737360e01b6064820152608401610329565b6001600160a01b0382166104c45760405162461bcd60e51b815260206004820152602260248201527f45524332303a20617070726f766520746f20746865207a65726f206164647265604482015261737360f01b6064820152608401610329565b6001600160a01b0383811660008181526001602090815260408083209487168084529482529182902085905590518481527f8c5be1e5ebec7d5bd14f71427d1e84f3dd0314c0f7b2291e5b200ac8c7c3b925910160405180910390a3505050565b600061053184846103d6565b90506000198114610599578181101561058c5760405162461bcd60e51b815260206004820152601d60248201527f45524332303a20696e73756666696369656e7420616c6c6f77616e63650000006044820152606401610329565b6105998484848403610401565b50505050565b6001600160a01b0383166106035760405162461bcd60e51b815260206004820152602560248201527f45524332303a207472616e736665722066726f6d20746865207a65726f206164604482015264647265737360d81b6064820152608401610329565b6001600160a01b0382166106655760405162461bcd60e51b815260206004820152602360248201527f45524332303a207472616e7366657220746f20746865207a65726f206164647260448201526265737360e81b6064820152608401610329565b6001600160a01b038316600090815260208190526040902054818110156106dd5760405162461bcd60e51b815260206004820152602660248201527f45524332303a207472616e7366657220616d6f756e7420657863656564732062604482015265616c616e636560d01b6064820152608401610329565b6001600160a01b038085166000908152602081905260408082208585039055918516815290812080548492906107149084906109cb565b92505081905550826001600160a01b0316846001600160a01b03167fddf252ad1be2c89b69c2b068fc378daa952ba7f163c4a11628f55a4df523b3ef8460405161076091815260200190565b60405180910390a3610599565b6001600160a01b0382166107c35760405162461bcd60e51b815260206004820152601f60248201527f45524332303a206d696e7420746f20746865207a65726f2061646472657373006044820152606401610329565b80600260008282546107d591906109cb565b90915550506001600160a01b038216600090815260208190526040812080548392906108029084906109cb565b90915550506040518181526001600160a01b038316906000907fddf252ad1be2c89b69c2b068fc378daa952ba7f163c4a11628f55a4df523b3ef9060200160405180910390a35050565b600060208083528351808285015260005b818110156108795785810183015185820160400152820161085d565b8181111561088b576000604083870101525b50601f01601f1916929092016040019392505050565b80356001600160a01b03811681146108b857600080fd5b919050565b600080604083850312156108d057600080fd5b6108d9836108a1565b946020939093013593505050565b6000806000606084860312156108fc57600080fd5b610905846108a1565b9250610913602085016108a1565b9150604084013590509250925092565b60006020828403121561093557600080fd5b61093e826108a1565b9392505050565b60006020828403121561095757600080fd5b5035919050565b6000806040838503121561097157600080fd5b61097a836108a1565b9150610988602084016108a1565b90509250929050565b600181811c908216806109a557607f821691505b6020821081036109c557634e487b7160e01b600052602260045260246000fd5b50919050565b600082198211156109ec57634e487b7160e01b600052601160045260246000fd5b500190565b600060208284031215610a0357600080fd5b8151801515811461093e57600080fdfea26469706673582212203a8aa599bacfd01e9ac44d2af738fadc1b1f17cea6cb7b27920a158682058d6f64736f6c634300080e0033",
  "linkReferences": {},
  "deployedLinkReferences": {}
}