{
  "_format": "hh-sol-artifact-1",
  "contractName": "Zapper",
  "sourceName": "contracts/Zapper.sol",
  "abi": [
    {
      "inputs": [
        {
          "internalType": "address",
          "name": "XGRAPE_",
          "type": "address"
        },
        {
          "internalType": "address",
          "name": "_underlying",
          "type": "address"
        },
        {
          "internalType": "address",
          "name": "_router",
          "type": "address"
        },
        {
          "internalType": "address",
          "name": "_lp",
          "type": "address"
        },
        {
          "internalType": "address",
          "name": "_mim",
          "type": "address"
        },
        {
          "internalType": "address",
          "name": "_grape",
          "type": "address"
        }
      ],
      "stateMutability": "nonpayable",
      "type": "constructor"
    },
    {
      "inputs": [],
      "name": "GRAPE",
      "outputs": [
        {
          "internalType": "address",
          "name": "",
          "type": "address"
        }
      ],
      "stateMutability": "view",
      "type": "function"
    },
    {
      "inputs": [],
      "name": "LP",
      "outputs": [
        {
          "internalType": "address",
          "name": "",
          "type": "address"
        }
      ],
      "stateMutability": "view",
      "type": "function"
    },
    {
      "inputs": [],
      "name": "MIM",
      "outputs": [
        {
          "internalType": "address",
          "name": "",
          "type": "address"
        }
      ],
      "stateMutability": "view",
      "type": "function"
    },
    {
      "inputs": [],
      "name": "Underlying",
      "outputs": [
        {
          "internalType": "contract IVault",
          "name": "",
          "type": "address"
        }
      ],
      "stateMutability": "view",
      "type": "function"
    },
    {
      "inputs": [],
      "name": "XGRAPE",
      "outputs": [
        {
          "internalType": "address",
          "name": "",
          "type": "address"
        }
      ],
      "stateMutability": "view",
      "type": "function"
    },
    {
      "inputs": [],
      "name": "router",
      "outputs": [
        {
          "internalType": "contract IUniswapV2Router02",
          "name": "",
          "type": "address"
        }
      ],
      "stateMutability": "view",
      "type": "function"
    },
    {
      "inputs": [
        {
          "internalType": "address",
          "name": "token_",
          "type": "address"
        },
        {
          "internalType": "uint256",
          "name": "amount",
          "type": "uint256"
        },
        {
          "internalType": "uint256",
          "name": "minOut",
          "type": "uint256"
        }
      ],
      "name": "zap",
      "outputs": [],
      "stateMutability": "nonpayable",
      "type": "function"
    },
    {
      "inputs": [
        {
          "internalType": "uint256",
          "name": "minOut",
          "type": "uint256"
        }
      ],
      "name": "zapWithAvax",
      "outputs": [],
      "stateMutability": "payable",
      "type": "function"
    },
    {
      "stateMutability": "payable",
      "type": "receive"
    }
  ],
  "bytecode": "0x6101406040523480156200001257600080fd5b5060405162001da838038062001da8833981016040819052620000359162000082565b6001600160a01b039586166101205293851660805291841660a052831660c052821660e052166101005262000103565b80516001600160a01b03811681146200007d57600080fd5b919050565b60008060008060008060c087890312156200009c57600080fd5b620000a78762000065565b9550620000b76020880162000065565b9450620000c76040880162000065565b9350620000d76060880162000065565b9250620000e76080880162000065565b9150620000f760a0880162000065565b90509295509295509295565b60805160a05160c05160e0516101005161012051611b23620002856000396000818160d4015281816101c30152818161074b015281816107d50152818161096c01526109f60152600081816102e2015281816104020152818161052501528181610ab601528181610c5f01528181611291015281816113c801526114b50152600081816102ae0152818161036c0152818161048c01528181610a7b01528181610c0001528181610c3901528181610e7b01528181610f6a015281816110e5015281816111bf015281816111fb015281816113160152611494015260008181610233015281816105eb015281816115a4015261163101526000818161031601528181610b8e01528181610d0501528181610dc601528181610ec5015281816110200152818161112f01528181611343015281816113f5015261146d01526000818160a301528181610267015281816105b2015281816106500152818161071e015281816108760152818161093f0152818161165e01526116e20152611b236000f3fe60806040526004361061007f5760003560e01c8063d5af89f81161004e578063d5af89f814610289578063daec383d1461029c578063e53a8a5f146102d0578063f887ea401461030457600080fd5b8063a55f98fa146101b1578063aa3b94ff14610201578063b6fccf8a14610221578063bb614acc1461025557600080fd5b366101ac5761008e6000610338565b6040516370a0823160e01b81523060048201527f00000000000000000000000000000000000000000000000000000000000000006001600160a01b03169063a9059cbb907f00000000000000000000000000000000000000000000000000000000000000009083906370a0823190602401602060405180830381865afa15801561011c573d6000803e3d6000fd5b505050506040513d601f19601f8201168201806040525081019061014091906117fd565b6040518363ffffffff1660e01b815260040161015d929190611816565b6020604051808303816000875af115801561017c573d6000803e3d6000fd5b505050506040513d601f19601f820116820180604052508101906101a0919061182f565b506101aa33610354565b005b600080fd5b3480156101bd57600080fd5b506101e57f000000000000000000000000000000000000000000000000000000000000000081565b6040516001600160a01b03909116815260200160405180910390f35b34801561020d57600080fd5b506101aa61021c36600461186d565b6105a6565b34801561022d57600080fd5b506101e57f000000000000000000000000000000000000000000000000000000000000000081565b34801561026157600080fd5b506101e57f000000000000000000000000000000000000000000000000000000000000000081565b6101aa6102973660046118a2565b610854565b3480156102a857600080fd5b506101e57f000000000000000000000000000000000000000000000000000000000000000081565b3480156102dc57600080fd5b506101e57f000000000000000000000000000000000000000000000000000000000000000081565b34801561031057600080fd5b506101e57f000000000000000000000000000000000000000000000000000000000000000081565b61034181610a79565b6103496111e3565b61035161158c565b50565b6040516370a0823160e01b81523060048201526000907f00000000000000000000000000000000000000000000000000000000000000006001600160a01b0316906370a0823190602401602060405180830381865afa1580156103bb573d6000803e3d6000fd5b505050506040513d601f19601f820116820180604052508101906103df91906117fd565b6040516370a0823160e01b81523060048201529091506000906001600160a01b037f000000000000000000000000000000000000000000000000000000000000000016906370a0823190602401602060405180830381865afa158015610449573d6000803e3d6000fd5b505050506040513d601f19601f8201168201806040525081019061046d91906117fd565b905081156105085760405163a9059cbb60e01b81526001600160a01b037f0000000000000000000000000000000000000000000000000000000000000000169063a9059cbb906104c39086908690600401611816565b6020604051808303816000875af11580156104e2573d6000803e3d6000fd5b505050506040513d601f19601f82011682018060405250810190610506919061182f565b505b80156105a15760405163a9059cbb60e01b81526001600160a01b037f0000000000000000000000000000000000000000000000000000000000000000169063a9059cbb9061055c9086908590600401611816565b6020604051808303816000875af115801561057b573d6000803e3d6000fd5b505050506040513d601f19601f8201168201806040525081019061059f919061182f565b505b505050565b6105b08383611742565b7f00000000000000000000000000000000000000000000000000000000000000006001600160a01b0316836001600160a01b031614610638577f00000000000000000000000000000000000000000000000000000000000000006001600160a01b0316836001600160a01b03160361062f5761062a61158c565b610638565b61063883610338565b6040516370a0823160e01b81523060048201526000907f00000000000000000000000000000000000000000000000000000000000000006001600160a01b0316906370a0823190602401602060405180830381865afa15801561069f573d6000803e3d6000fd5b505050506040513d601f19601f820116820180604052508101906106c391906117fd565b9050818110156107075760405162461bcd60e51b815260206004820152600a602482015269135a5b8813140813dd5d60b21b60448201526064015b60405180910390fd5b60405163095ea7b360e01b81526001600160a01b037f0000000000000000000000000000000000000000000000000000000000000000169063095ea7b390610775907f0000000000000000000000000000000000000000000000000000000000000000908590600401611816565b6020604051808303816000875af1158015610794573d6000803e3d6000fd5b505050506040513d601f19601f820116820180604052508101906107b8919061182f565b50604051637314f10960e01b8152600481018290523360248201527f00000000000000000000000000000000000000000000000000000000000000006001600160a01b031690637314f109906044016020604051808303816000875af1158015610826573d6000803e3d6000fd5b505050506040513d601f19601f8201168201806040525081019061084a91906117fd565b5061059f33610354565b61085e6000610338565b6040516370a0823160e01b81523060048201526000907f00000000000000000000000000000000000000000000000000000000000000006001600160a01b0316906370a0823190602401602060405180830381865afa1580156108c5573d6000803e3d6000fd5b505050506040513d601f19601f820116820180604052508101906108e991906117fd565b9050818110156109285760405162461bcd60e51b815260206004820152600a602482015269135a5b8813140813dd5d60b21b60448201526064016106fe565b60405163095ea7b360e01b81526001600160a01b037f0000000000000000000000000000000000000000000000000000000000000000169063095ea7b390610996907f0000000000000000000000000000000000000000000000000000000000000000908590600401611816565b6020604051808303816000875af11580156109b5573d6000803e3d6000fd5b505050506040513d601f19601f820116820180604052508101906109d9919061182f565b50604051637314f10960e01b8152600481018290523360248201527f00000000000000000000000000000000000000000000000000000000000000006001600160a01b031690637314f109906044016020604051808303816000875af1158015610a47573d6000803e3d6000fd5b505050506040513d601f19601f82011682018060405250810190610a6b91906117fd565b50610a7533610354565b5050565b7f00000000000000000000000000000000000000000000000000000000000000006001600160a01b0316816001600160a01b03161480610aea57507f00000000000000000000000000000000000000000000000000000000000000006001600160a01b0316816001600160a01b0316145b15610d95576040516370a0823160e01b81523060048201526000906002906001600160a01b038416906370a0823190602401602060405180830381865afa158015610b39573d6000803e3d6000fd5b505050506040513d601f19601f82011682018060405250810190610b5d91906117fd565b610b6791906118bb565b60405163095ea7b360e01b81529091506001600160a01b0383169063095ea7b390610bb8907f0000000000000000000000000000000000000000000000000000000000000000908590600401611816565b6020604051808303816000875af1158015610bd7573d6000803e3d6000fd5b505050506040513d601f19601f82011682018060405250810190610bfb919061182f565b5060007f00000000000000000000000000000000000000000000000000000000000000006001600160a01b0316836001600160a01b031614610c5d577f0000000000000000000000000000000000000000000000000000000000000000610c7f565b7f00000000000000000000000000000000000000000000000000000000000000005b60408051600280825260608201835292935060009290916020830190803683370190505090508381600081518110610cb957610cb96118f3565b60200260200101906001600160a01b031690816001600160a01b0316815250508181600181518110610ced57610ced6118f3565b6001600160a01b0392831660209182029290920101527f000000000000000000000000000000000000000000000000000000000000000016635c11d7958460008430610d3a42600a611909565b6040518663ffffffff1660e01b8152600401610d5a959493929190611973565b600060405180830381600087803b158015610d7457600080fd5b505af1158015610d88573d6000803e3d6000fd5b5061035195505050505050565b6001600160a01b038116610f8e576040805160028082526060820183526000926020830190803683370190505090507f00000000000000000000000000000000000000000000000000000000000000006001600160a01b031663ad5c46486040518163ffffffff1660e01b8152600401602060405180830381865afa158015610e22573d6000803e3d6000fd5b505050506040513d601f19601f82011682018060405250810190610e4691906119af565b81600081518110610e5957610e596118f3565b60200260200101906001600160a01b031690816001600160a01b0316815250507f000000000000000000000000000000000000000000000000000000000000000081600181518110610ead57610ead6118f3565b6001600160a01b0392831660209182029290920101527f000000000000000000000000000000000000000000000000000000000000000016637ff36ab54760008430610efa42600a611909565b6040518663ffffffff1660e01b8152600401610f1994939291906119cc565b60006040518083038185885af1158015610f37573d6000803e3d6000fd5b50505050506040513d6000823e601f3d908101601f19168201604052610f609190810190611a01565b5060609050610a757f0000000000000000000000000000000000000000000000000000000000000000610a79565b6040516370a0823160e01b81523060048201526000906001600160a01b038316906370a0823190602401602060405180830381865afa158015610fd5573d6000803e3d6000fd5b505050506040513d601f19601f82011682018060405250810190610ff991906117fd565b60405163095ea7b360e01b81529091506001600160a01b0383169063095ea7b39061104a907f0000000000000000000000000000000000000000000000000000000000000000908590600401611816565b6020604051808303816000875af1158015611069573d6000803e3d6000fd5b505050506040513d601f19601f8201168201806040525081019061108d919061182f565b5060408051600280825260608201835260009260208301908036833701905050905082816000815181106110c3576110c36118f3565b60200260200101906001600160a01b031690816001600160a01b0316815250507f000000000000000000000000000000000000000000000000000000000000000081600181518110611117576111176118f3565b6001600160a01b0392831660209182029290920101527f000000000000000000000000000000000000000000000000000000000000000016635c11d795836000843061116442600a611909565b6040518663ffffffff1660e01b8152600401611184959493929190611973565b600060405180830381600087803b15801561119e57600080fd5b505af11580156111b2573d6000803e3d6000fd5b50505050606090506105a17f0000000000000000000000000000000000000000000000000000000000000000610a79565b6040516370a0823160e01b81523060048201526000907f00000000000000000000000000000000000000000000000000000000000000006001600160a01b0316906370a0823190602401602060405180830381865afa15801561124a573d6000803e3d6000fd5b505050506040513d601f19601f8201168201806040525081019061126e91906117fd565b6040516370a0823160e01b81523060048201529091506000906001600160a01b037f000000000000000000000000000000000000000000000000000000000000000016906370a0823190602401602060405180830381865afa1580156112d8573d6000803e3d6000fd5b505050506040513d601f19601f820116820180604052508101906112fc91906117fd565b60405163095ea7b360e01b81529091506001600160a01b037f0000000000000000000000000000000000000000000000000000000000000000169063095ea7b39061136d907f0000000000000000000000000000000000000000000000000000000000000000908690600401611816565b6020604051808303816000875af115801561138c573d6000803e3d6000fd5b505050506040513d601f19601f820116820180604052508101906113b0919061182f565b5060405163095ea7b360e01b81526001600160a01b037f0000000000000000000000000000000000000000000000000000000000000000169063095ea7b39061141f907f0000000000000000000000000000000000000000000000000000000000000000908590600401611816565b6020604051808303816000875af115801561143e573d6000803e3d6000fd5b505050506040513d601f19601f82011682018060405250810190611462919061182f565b506001600160a01b037f00000000000000000000000000000000000000000000000000000000000000001663e8e337007f00000000000000000000000000000000000000000000000000000000000000007f00000000000000000000000000000000000000000000000000000000000000008585600080306114e542600a611909565b60405160e08a901b6001600160e01b03191681526001600160a01b039889166004820152968816602488015260448701959095526064860193909352608485019190915260a484015290921660c482015260e4810191909152610104016060604051808303816000875af1158015611561573d6000803e3d6000fd5b505050506040513d601f19601f820116820180604052508101906115859190611abf565b5050505050565b6040516370a0823160e01b81523060048201526000907f00000000000000000000000000000000000000000000000000000000000000006001600160a01b0316906370a0823190602401602060405180830381865afa1580156115f3573d6000803e3d6000fd5b505050506040513d601f19601f8201168201806040525081019061161791906117fd565b60405163095ea7b360e01b81529091506001600160a01b037f0000000000000000000000000000000000000000000000000000000000000000169063095ea7b390611688907f0000000000000000000000000000000000000000000000000000000000000000908590600401611816565b6020604051808303816000875af11580156116a7573d6000803e3d6000fd5b505050506040513d601f19601f820116820180604052508101906116cb919061182f565b5060405163b6b55f2560e01b8152600481018290527f00000000000000000000000000000000000000000000000000000000000000006001600160a01b03169063b6b55f2590602401600060405180830381600087803b15801561172e57600080fd5b505af1158015611585573d6000803e3d6000fd5b6040516323b872dd60e01b8152336004820152306024820152604481018290526001600160a01b038316906323b872dd906064016020604051808303816000875af1158015611795573d6000803e3d6000fd5b505050506040513d601f19601f820116820180604052508101906117b9919061182f565b610a755760405162461bcd60e51b81526020600482015260156024820152744661696c757265205472616e736665722046726f6d60581b60448201526064016106fe565b60006020828403121561180f57600080fd5b5051919050565b6001600160a01b03929092168252602082015260400190565b60006020828403121561184157600080fd5b8151801515811461185157600080fd5b9392505050565b6001600160a01b038116811461035157600080fd5b60008060006060848603121561188257600080fd5b833561188d81611858565b95602085013595506040909401359392505050565b6000602082840312156118b457600080fd5b5035919050565b6000826118d857634e487b7160e01b600052601260045260246000fd5b500490565b634e487b7160e01b600052604160045260246000fd5b634e487b7160e01b600052603260045260246000fd5b6000821982111561192a57634e487b7160e01b600052601160045260246000fd5b500190565b600081518084526020808501945080840160005b838110156119685781516001600160a01b031687529582019590820190600101611943565b509495945050505050565b85815284602082015260a06040820152600061199260a083018661192f565b6001600160a01b0394909416606083015250608001529392505050565b6000602082840312156119c157600080fd5b815161185181611858565b8481526080602082015260006119e5608083018661192f565b6001600160a01b03949094166040830152506060015292915050565b60006020808385031215611a1457600080fd5b825167ffffffffffffffff80821115611a2c57600080fd5b818501915085601f830112611a4057600080fd5b815181811115611a5257611a526118dd565b8060051b604051601f19603f83011681018181108582111715611a7757611a776118dd565b604052918252848201925083810185019188831115611a9557600080fd5b938501935b82851015611ab357845184529385019392850192611a9a565b98975050505050505050565b600080600060608486031215611ad457600080fd5b835192506020840151915060408401519050925092509256fea26469706673582212200685e60cd8d0bd566e02b64f62d842d0192694b861c4725eb7c39a6d7c285c8b64736f6c634300080e0033",
  "linkReferences": {},
  "deployedLinkReferences": {}
}