{
  "_format": "hh-sol-artifact-1",
  "contractName": "xGRAPE",
  "sourceName": "contracts/xGRAPE.sol",
  "abi": [
    {
      "inputs": [
        {
          "internalType": "address",
          "name": "underlying_",
          "type": "address"
        },
        {
          "internalType": "address",
          "name": "feeReceiver_",
          "type": "address"
        }
      ],
      "stateMutability": "nonpayable",
      "type": "constructor"
    },
    {
      "anonymous": false,
      "inputs": [
        {
          "indexed": true,
          "internalType": "address",
          "name": "owner",
          "type": "address"
        },
        {
          "indexed": true,
          "internalType": "address",
          "name": "spender",
          "type": "address"
        },
        {
          "indexed": false,
          "internalType": "uint256",
          "name": "value",
          "type": "uint256"
        }
      ],
      "name": "Approval",
      "type": "event"
    },
    {
      "anonymous": false,
      "inputs": [
        {
          "indexed": false,
          "internalType": "address",
          "name": "from",
          "type": "address"
        },
        {
          "indexed": false,
          "internalType": "uint256",
          "name": "amountTokensErased",
          "type": "uint256"
        }
      ],
      "name": "Burn",
      "type": "event"
    },
    {
      "anonymous": false,
      "inputs": [
        {
          "indexed": false,
          "internalType": "uint256",
          "name": "amountTokensErased",
          "type": "uint256"
        }
      ],
      "name": "GarbageCollected",
      "type": "event"
    },
    {
      "anonymous": false,
      "inputs": [
        {
          "indexed": false,
          "internalType": "address",
          "name": "recipient",
          "type": "address"
        },
        {
          "indexed": false,
          "internalType": "uint256",
          "name": "numTokens",
          "type": "uint256"
        }
      ],
      "name": "Minted",
      "type": "event"
    },
    {
      "anonymous": false,
      "inputs": [
        {
          "indexed": true,
          "internalType": "address",
          "name": "oldOwner",
          "type": "address"
        },
        {
          "indexed": true,
          "internalType": "address",
          "name": "newOwner",
          "type": "address"
        }
      ],
      "name": "OwnerSet",
      "type": "event"
    },
    {
      "anonymous": false,
      "inputs": [
        {
          "indexed": false,
          "internalType": "uint256",
          "name": "previousPrice",
          "type": "uint256"
        },
        {
          "indexed": false,
          "internalType": "uint256",
          "name": "currentPrice",
          "type": "uint256"
        },
        {
          "indexed": false,
          "internalType": "uint256",
          "name": "totalSupply",
          "type": "uint256"
        }
      ],
      "name": "PriceChange",
      "type": "event"
    },
    {
      "anonymous": false,
      "inputs": [
        {
          "indexed": false,
          "internalType": "address",
          "name": "seller",
          "type": "address"
        },
        {
          "indexed": false,
          "internalType": "uint256",
          "name": "amountMDB",
          "type": "uint256"
        },
        {
          "indexed": false,
          "internalType": "uint256",
          "name": "amountBUSD",
          "type": "uint256"
        }
      ],
      "name": "Redeemed",
      "type": "event"
    },
    {
      "anonymous": false,
      "inputs": [
        {
          "indexed": false,
          "internalType": "address",
          "name": "account",
          "type": "address"
        }
      ],
      "name": "SellDownAccount",
      "type": "event"
    },
    {
      "anonymous": false,
      "inputs": [
        {
          "indexed": false,
          "internalType": "address",
          "name": "newReceiver",
          "type": "address"
        }
      ],
      "name": "SetFeeReceiver",
      "type": "event"
    },
    {
      "anonymous": false,
      "inputs": [
        {
          "indexed": false,
          "internalType": "uint256",
          "name": "newPercentage",
          "type": "uint256"
        }
      ],
      "name": "SetFeeReceiverPercentage",
      "type": "event"
    },
    {
      "anonymous": false,
      "inputs": [
        {
          "indexed": false,
          "internalType": "uint256",
          "name": "mintFee",
          "type": "uint256"
        },
        {
          "indexed": false,
          "internalType": "uint256",
          "name": "transferFee",
          "type": "uint256"
        },
        {
          "indexed": false,
          "internalType": "uint256",
          "name": "sellFee",
          "type": "uint256"
        }
      ],
      "name": "SetFees",
      "type": "event"
    },
    {
      "anonymous": false,
      "inputs": [
        {
          "indexed": false,
          "internalType": "address",
          "name": "Contract",
          "type": "address"
        },
        {
          "indexed": false,
          "internalType": "bool",
          "name": "feeExempt",
          "type": "bool"
        }
      ],
      "name": "SetPermissions",
      "type": "event"
    },
    {
      "anonymous": false,
      "inputs": [
        {
          "indexed": false,
          "internalType": "address",
          "name": "newZapper",
          "type": "address"
        }
      ],
      "name": "SetZapper",
      "type": "event"
    },
    {
      "anonymous": false,
      "inputs": [
        {
          "indexed": false,
          "internalType": "uint256",
          "name": "blockNo",
          "type": "uint256"
        }
      ],
      "name": "TokenActivated",
      "type": "event"
    },
    {
      "anonymous": false,
      "inputs": [
        {
          "indexed": true,
          "internalType": "address",
          "name": "from",
          "type": "address"
        },
        {
          "indexed": true,
          "internalType": "address",
          "name": "to",
          "type": "address"
        },
        {
          "indexed": false,
          "internalType": "uint256",
          "name": "value",
          "type": "uint256"
        }
      ],
      "name": "Transfer",
      "type": "event"
    },
    {
      "inputs": [],
      "name": "activateToken",
      "outputs": [],
      "stateMutability": "nonpayable",
      "type": "function"
    },
    {
      "inputs": [
        {
          "internalType": "address",
          "name": "holder",
          "type": "address"
        },
        {
          "internalType": "address",
          "name": "spender",
          "type": "address"
        }
      ],
      "name": "allowance",
      "outputs": [
        {
          "internalType": "uint256",
          "name": "",
          "type": "uint256"
        }
      ],
      "stateMutability": "view",
      "type": "function"
    },
    {
      "inputs": [
        {
          "internalType": "uint256",
          "name": "numTokens",
          "type": "uint256"
        }
      ],
      "name": "amountOut",
      "outputs": [
        {
          "internalType": "uint256",
          "name": "",
          "type": "uint256"
        }
      ],
      "stateMutability": "view",
      "type": "function"
    },
    {
      "inputs": [
        {
          "internalType": "address",
          "name": "spender",
          "type": "address"
        },
        {
          "internalType": "uint256",
          "name": "amount",
          "type": "uint256"
        }
      ],
      "name": "approve",
      "outputs": [
        {
          "internalType": "bool",
          "name": "",
          "type": "bool"
        }
      ],
      "stateMutability": "nonpayable",
      "type": "function"
    },
    {
      "inputs": [
        {
          "internalType": "address",
          "name": "account",
          "type": "address"
        }
      ],
      "name": "balanceOf",
      "outputs": [
        {
          "internalType": "uint256",
          "name": "",
          "type": "uint256"
        }
      ],
      "stateMutability": "view",
      "type": "function"
    },
    {
      "inputs": [
        {
          "internalType": "uint256",
          "name": "amount",
          "type": "uint256"
        }
      ],
      "name": "burn",
      "outputs": [],
      "stateMutability": "nonpayable",
      "type": "function"
    },
    {
      "inputs": [],
      "name": "calculatePrice",
      "outputs": [
        {
          "internalType": "uint256",
          "name": "",
          "type": "uint256"
        }
      ],
      "stateMutability": "view",
      "type": "function"
    },
    {
      "inputs": [
        {
          "internalType": "address",
          "name": "newOwner",
          "type": "address"
        }
      ],
      "name": "changeOwner",
      "outputs": [],
      "stateMutability": "nonpayable",
      "type": "function"
    },
    {
      "inputs": [],
      "name": "decimals",
      "outputs": [
        {
          "internalType": "uint8",
          "name": "",
          "type": "uint8"
        }
      ],
      "stateMutability": "pure",
      "type": "function"
    },
    {
      "inputs": [],
      "name": "feeReceiver",
      "outputs": [
        {
          "internalType": "address",
          "name": "",
          "type": "address"
        }
      ],
      "stateMutability": "view",
      "type": "function"
    },
    {
      "inputs": [],
      "name": "feeReceiverPercentage",
      "outputs": [
        {
          "internalType": "uint256",
          "name": "",
          "type": "uint256"
        }
      ],
      "stateMutability": "view",
      "type": "function"
    },
    {
      "inputs": [],
      "name": "getOwner",
      "outputs": [
        {
          "internalType": "address",
          "name": "",
          "type": "address"
        }
      ],
      "stateMutability": "view",
      "type": "function"
    },
    {
      "inputs": [
        {
          "internalType": "address",
          "name": "holder",
          "type": "address"
        }
      ],
      "name": "getValueOfHoldings",
      "outputs": [
        {
          "internalType": "uint256",
          "name": "",
          "type": "uint256"
        }
      ],
      "stateMutability": "view",
      "type": "function"
    },
    {
      "inputs": [
        {
          "internalType": "address",
          "name": "",
          "type": "address"
        }
      ],
      "name": "isTransferFeeExempt",
      "outputs": [
        {
          "internalType": "bool",
          "name": "",
          "type": "bool"
        }
      ],
      "stateMutability": "view",
      "type": "function"
    },
    {
      "inputs": [],
      "name": "mintFee",
      "outputs": [
        {
          "internalType": "uint256",
          "name": "",
          "type": "uint256"
        }
      ],
      "stateMutability": "view",
      "type": "function"
    },
    {
      "inputs": [
        {
          "internalType": "uint256",
          "name": "numTokens",
          "type": "uint256"
        },
        {
          "internalType": "address",
          "name": "recipient",
          "type": "address"
        }
      ],
      "name": "mintWithBacking",
      "outputs": [
        {
          "internalType": "uint256",
          "name": "",
          "type": "uint256"
        }
      ],
      "stateMutability": "nonpayable",
      "type": "function"
    },
    {
      "inputs": [
        {
          "internalType": "address",
          "name": "recipient",
          "type": "address"
        },
        {
          "internalType": "uint256",
          "name": "minOut",
          "type": "uint256"
        }
      ],
      "name": "mintWithNative",
      "outputs": [
        {
          "internalType": "uint256",
          "name": "",
          "type": "uint256"
        }
      ],
      "stateMutability": "payable",
      "type": "function"
    },
    {
      "inputs": [],
      "name": "name",
      "outputs": [
        {
          "internalType": "string",
          "name": "",
          "type": "string"
        }
      ],
      "stateMutability": "pure",
      "type": "function"
    },
    {
      "inputs": [
        {
          "internalType": "uint256",
          "name": "tokenAmount",
          "type": "uint256"
        },
        {
          "internalType": "address",
          "name": "recipient",
          "type": "address"
        }
      ],
      "name": "sell",
      "outputs": [
        {
          "internalType": "uint256",
          "name": "",
          "type": "uint256"
        }
      ],
      "stateMutability": "nonpayable",
      "type": "function"
    },
    {
      "inputs": [
        {
          "internalType": "uint256",
          "name": "tokenAmount",
          "type": "uint256"
        }
      ],
      "name": "sell",
      "outputs": [
        {
          "internalType": "uint256",
          "name": "",
          "type": "uint256"
        }
      ],
      "stateMutability": "nonpayable",
      "type": "function"
    },
    {
      "inputs": [
        {
          "internalType": "address",
          "name": "account",
          "type": "address"
        }
      ],
      "name": "sellDownExternalAccount",
      "outputs": [],
      "stateMutability": "nonpayable",
      "type": "function"
    },
    {
      "inputs": [],
      "name": "sellFee",
      "outputs": [
        {
          "internalType": "uint256",
          "name": "",
          "type": "uint256"
        }
      ],
      "stateMutability": "view",
      "type": "function"
    },
    {
      "inputs": [
        {
          "internalType": "address",
          "name": "newReceiver",
          "type": "address"
        }
      ],
      "name": "setFeeReceiver",
      "outputs": [],
      "stateMutability": "nonpayable",
      "type": "function"
    },
    {
      "inputs": [
        {
          "internalType": "uint256",
          "name": "newPercentage",
          "type": "uint256"
        }
      ],
      "name": "setFeeReceiverPercentage",
      "outputs": [],
      "stateMutability": "nonpayable",
      "type": "function"
    },
    {
      "inputs": [
        {
          "internalType": "uint256",
          "name": "_mintFee",
          "type": "uint256"
        },
        {
          "internalType": "uint256",
          "name": "_transferFee",
          "type": "uint256"
        },
        {
          "internalType": "uint256",
          "name": "_sellFee",
          "type": "uint256"
        }
      ],
      "name": "setFees",
      "outputs": [],
      "stateMutability": "nonpayable",
      "type": "function"
    },
    {
      "inputs": [
        {
          "internalType": "address",
          "name": "Contract",
          "type": "address"
        },
        {
          "internalType": "bool",
          "name": "transferFeeExempt",
          "type": "bool"
        }
      ],
      "name": "setTransferFeeExempt",
      "outputs": [],
      "stateMutability": "nonpayable",
      "type": "function"
    },
    {
      "inputs": [
        {
          "internalType": "address",
          "name": "newZapper",
          "type": "address"
        }
      ],
      "name": "setZapper",
      "outputs": [],
      "stateMutability": "nonpayable",
      "type": "function"
    },
    {
      "inputs": [],
      "name": "symbol",
      "outputs": [
        {
          "internalType": "string",
          "name": "",
          "type": "string"
        }
      ],
      "stateMutability": "pure",
      "type": "function"
    },
    {
      "inputs": [],
      "name": "tokenActivated",
      "outputs": [
        {
          "internalType": "bool",
          "name": "",
          "type": "bool"
        }
      ],
      "stateMutability": "view",
      "type": "function"
    },
    {
      "inputs": [],
      "name": "totalSupply",
      "outputs": [
        {
          "internalType": "uint256",
          "name": "",
          "type": "uint256"
        }
      ],
      "stateMutability": "view",
      "type": "function"
    },
    {
      "inputs": [
        {
          "internalType": "address",
          "name": "recipient",
          "type": "address"
        },
        {
          "internalType": "uint256",
          "name": "amount",
          "type": "uint256"
        }
      ],
      "name": "transfer",
      "outputs": [
        {
          "internalType": "bool",
          "name": "",
          "type": "bool"
        }
      ],
      "stateMutability": "nonpayable",
      "type": "function"
    },
    {
      "inputs": [],
      "name": "transferFee",
      "outputs": [
        {
          "internalType": "uint256",
          "name": "",
          "type": "uint256"
        }
      ],
      "stateMutability": "view",
      "type": "function"
    },
    {
      "inputs": [
        {
          "internalType": "address",
          "name": "sender",
          "type": "address"
        },
        {
          "internalType": "address",
          "name": "recipient",
          "type": "address"
        },
        {
          "internalType": "uint256",
          "name": "amount",
          "type": "uint256"
        }
      ],
      "name": "transferFrom",
      "outputs": [
        {
          "internalType": "bool",
          "name": "",
          "type": "bool"
        }
      ],
      "stateMutability": "nonpayable",
      "type": "function"
    },
    {
      "inputs": [],
      "name": "underlying",
      "outputs": [
        {
          "internalType": "contract IERC20",
          "name": "",
          "type": "address"
        }
      ],
      "stateMutability": "view",
      "type": "function"
    },
    {
      "inputs": [],
      "name": "underlyingBalance",
      "outputs": [
        {
          "internalType": "uint256",
          "name": "",
          "type": "uint256"
        }
      ],
      "stateMutability": "view",
      "type": "function"
    },
    {
      "inputs": [
        {
          "internalType": "contract IERC20",
          "name": "token",
          "type": "address"
        }
      ],
      "name": "withdrawNonStableToken",
      "outputs": [],
      "stateMutability": "nonpayable",
      "type": "function"
    },
    {
      "inputs": [],
      "name": "zapper",
      "outputs": [
        {
          "internalType": "address",
          "name": "",
          "type": "address"
        }
      ],
      "stateMutability": "view",
      "type": "function"
    },
    {
      "stateMutability": "payable",
      "type": "receive"
    }
  ],
  "bytecode": "0x60a0604052620182b8600755620182b8600855620182b86009553480156200002657600080fd5b5060405162002a0c38038062002a0c83398101604081905262000049916200018a565b600080546001600160a01b0319163390811782556040519091907f342827c97908e5e2f71151c08502a66d44b6f758e3ac2f1de95f02eb95f0a735908290a3600180556001600160a01b038216620000d65760405162461bcd60e51b815260206004820152600c60248201526b5a65726f204164647265737360a01b604482015260640160405180910390fd5b6001600160a01b03808316608052336000908152600560205260409020805460ff19166001179055600a80549183166001600160a01b0319909216919091179055620001276004620186a0620001c2565b600b5560025460405190815233906000907fddf252ad1be2c89b69c2b068fc378daa952ba7f163c4a11628f55a4df523b3ef9060200160405180910390a35050620001e5565b80516001600160a01b03811681146200018557600080fd5b919050565b600080604083850312156200019e57600080fd5b620001a9836200016d565b9150620001b9602084016200016d565b90509250929050565b600082620001e057634e487b7160e01b600052601260045260246000fd5b500490565b6080516127e8620002246000396000818161046101528181610a3001528181610e9d01528181611d7c01528181612004015261231501526127e86000f3fe60806040526004361061021e5760003560e01c80637314f10911610123578063acb2ad6f116100ab578063dd62ed3e1161006f578063dd62ed3e1461067f578063e4849b32146106c5578063efdcd974146106e5578063f1e4bb6c14610705578063f957417e1461072557600080fd5b8063acb2ad6f146105f4578063b3f006741461060a578063cea9e1921461062a578063cec10c111461064a578063d348b4091461066a57600080fd5b806395d89b41116100f257806395d89b411461054f578063a56c4ced1461057e578063a6f9dae114610594578063a7a21712146105b4578063a9059cbb146105d457600080fd5b80637314f109146104d157806375fe9fba146104f15780637dfcabd914610511578063893d20e81461053157600080fd5b8063313ce567116101a6578063549b472911610175578063549b4729146103f0578063554450171461042057806359356c5c1461043a5780636f307dc31461044f57806370a082311461049b57600080fd5b8063313ce567146103745780634189a68e1461039057806342435175146103b057806342966c68146103d057600080fd5b80631aa5a82d116101ed5780631aa5a82d146102eb5780631cf13bf51461030b5780631f02a29c1461031e57806323b872dd1461033e5780632b14ca561461035e57600080fd5b806306fdde031461023e578063095ea7b31461028257806313966db5146102b257806318160ddd146102d657600080fd5b366102395761022c3061073a565b610237336000610801565b005b600080fd5b34801561024a57600080fd5b50604080518082019091526009815268477261706556696e6560b81b60208201525b6040516102799190612459565b60405180910390f35b34801561028e57600080fd5b506102a261029d3660046124c6565b610997565b6040519015158152602001610279565b3480156102be57600080fd5b506102c860075481565b604051908152602001610279565b3480156102e257600080fd5b506002546102c8565b3480156102f757600080fd5b506102376103063660046124f2565b610a04565b6102c86103193660046124c6565b610bb6565b34801561032a57600080fd5b506102c86103393660046124f2565b610bd2565b34801561034a57600080fd5b506102a261035936600461250f565b610bf4565b34801561036a57600080fd5b506102c860085481565b34801561038057600080fd5b5060405160128152602001610279565b34801561039c57600080fd5b506102c86103ab366004612550565b610cb4565b3480156103bc57600080fd5b506102376103cb3660046124f2565b610cf3565b3480156103dc57600080fd5b506102376103eb366004612580565b610d98565b3480156103fc57600080fd5b506102a261040b3660046124f2565b60056020526000908152604090205460ff1681565b34801561042c57600080fd5b506006546102a29060ff1681565b34801561044657600080fd5b506102c8610e85565b34801561045b57600080fd5b506104837f000000000000000000000000000000000000000000000000000000000000000081565b6040516001600160a01b039091168152602001610279565b3480156104a757600080fd5b506102c86104b63660046124f2565b6001600160a01b031660009081526003602052604090205490565b3480156104dd57600080fd5b506102c86104ec366004612550565b610f15565b3480156104fd57600080fd5b506102c861050c366004612580565b610f51565b34801561051d57600080fd5b5061023761052c3660046125a7565b610f77565b34801561053d57600080fd5b506000546001600160a01b0316610483565b34801561055b57600080fd5b5060408051808201909152600681526558475241504560d01b602082015261026c565b34801561058a57600080fd5b506102c8600b5481565b3480156105a057600080fd5b506102376105af3660046124f2565b61102b565b3480156105c057600080fd5b50600c54610483906001600160a01b031681565b3480156105e057600080fd5b506102a26105ef3660046124c6565b6110b0565b34801561060057600080fd5b506102c860095481565b34801561061657600080fd5b50600a54610483906001600160a01b031681565b34801561063657600080fd5b50610237610645366004612580565b6110e4565b34801561065657600080fd5b506102376106653660046125d5565b6111a1565b34801561067657600080fd5b506102c8611248565b34801561068b57600080fd5b506102c861069a366004612601565b6001600160a01b03918216600090815260046020908152604080832093909416825291909152205490565b3480156106d157600080fd5b506102c86106e0366004612580565b611252565b3480156106f157600080fd5b506102376107003660046124f2565b611290565b34801561071157600080fd5b506102376107203660046124f2565b61132e565b34801561073157600080fd5b5061023761148e565b6001600160a01b0381166000908152600360205260409020546103e88111156107fd576000610767611554565b905061077282611587565b61077c83836115dc565b6040518281527f8a1c945864c85a9dee42b8734075761f7a16095a8384ab751f2417c5767e227e9060200160405180910390a17f046aa811b2923fd55b4ca06375b4045117d4584c66fc40880a8ab8ee32d88ed1816107d9611554565b600254604080519384526020840192909252908201526060015b60405180910390a1505b5050565b600060026001540361082e5760405162461bcd60e51b81526004016108259061262f565b60405180910390fd5b60026001553461086d5760405162461bcd60e51b815260206004820152600a6024820152695a65726f2056616c756560b01b6044820152606401610825565b6001600160a01b0383166108935760405162461bcd60e51b815260040161082590612666565b60065460ff16806109165750306001600160a01b031663893d20e86040518163ffffffff1660e01b8152600401602060405180830381865afa1580156108dd573d6000803e3d6000fd5b505050506040513d601f19601f82011682018060405250810190610901919061268c565b6001600160a01b0316336001600160a01b0316145b6109585760405162461bcd60e51b8152602060048201526013602482015272151bdad95b88139bdd081058dd1a5d985d1959606a1b6044820152606401610825565b6000610962611554565b9050600061096e610e85565b9050600061097b856116b9565b905061098986828486611816565b600180559695505050505050565b3360008181526004602090815260408083206001600160a01b038716808552925280832085905551919290917f8c5be1e5ebec7d5bd14f71427d1e84f3dd0314c0f7b2291e5b200ac8c7c3b925906109f29086815260200190565b60405180910390a35060015b92915050565b6000546001600160a01b03163314610a2e5760405162461bcd60e51b8152600401610825906126a9565b7f00000000000000000000000000000000000000000000000000000000000000006001600160a01b0316816001600160a01b031603610aaf5760405162461bcd60e51b815260206004820181905260248201527f43616e6e6f7420576974686472617720556e6465726c79696e672041737365746044820152606401610825565b6001600160a01b038116610ad55760405162461bcd60e51b815260040161082590612666565b6040516370a0823160e01b81523060048201526001600160a01b0382169063a9059cbb90339083906370a0823190602401602060405180830381865afa158015610b23573d6000803e3d6000fd5b505050506040513d601f19601f82011682018060405250810190610b4791906126d6565b6040516001600160e01b031960e085901b1681526001600160a01b03909216600483015260248201526044016020604051808303816000875af1158015610b92573d6000803e3d6000fd5b505050506040513d601f19601f820116820180604052508101906107fd91906126ef565b6000610bc13061073a565b610bcb8383610801565b9392505050565b6001600160a01b0381166000908152600360205260408120546109fe90610f51565b6000600260015403610c185760405162461bcd60e51b81526004016108259061262f565b60026001556040805180820182526016815275496e73756666696369656e7420416c6c6f77616e636560501b6020808301919091526001600160a01b0387166000908152600482528381203382529091529190912054610c79918490611984565b6001600160a01b0385166000908152600460209081526040808320338452909152902055610ca88484846119b5565b60018055949350505050565b6000600260015403610cd85760405162461bcd60e51b81526004016108259061262f565b6002600155610ce8338484611c2c565b600180559392505050565b6000546001600160a01b03163314610d1d5760405162461bcd60e51b8152600401610825906126a9565b6001600160a01b038116610d435760405162461bcd60e51b815260040161082590612666565b600c80546001600160a01b0319166001600160a01b0383169081179091556040519081527fe1e732dbbc8e3554486963da7b8477bf9f5066e9172819ed0397db8535ac527e906020015b60405180910390a150565b600260015403610dba5760405162461bcd60e51b81526004016108259061262f565b600260015533600090815260036020526040902054818110801590610ddf5750600081115b610e1b5760405162461bcd60e51b815260206004820152600d60248201526c5a65726f20486f6c64696e677360981b6044820152606401610825565b6000610e25611554565b9050610e3083611587565b610e3a33846115dc565b610e4381611e92565b60408051338152602081018590527fcc16f5dbb4873280815c1ee09dbd06736cffcc184412cf7a71a0fdb75d397ca5910160405180910390a150506001805550565b6040516370a0823160e01b81523060048201526000907f00000000000000000000000000000000000000000000000000000000000000006001600160a01b0316906370a0823190602401602060405180830381865afa158015610eec573d6000803e3d6000fd5b505050506040513d601f19601f82011682018060405250810190610f1091906126d6565b905090565b6000600260015403610f395760405162461bcd60e51b81526004016108259061262f565b6002600155610f473061073a565b610ce88383611f24565b60006109fe670de0b6b3a7640000610f7184610f6b611554565b90612108565b9061218a565b6000546001600160a01b03163314610fa15760405162461bcd60e51b8152600401610825906126a9565b6001600160a01b038216610fc75760405162461bcd60e51b815260040161082590612666565b6001600160a01b038216600081815260056020908152604091829020805460ff19168515159081179091558251938452908301527fd0444b45a0ac5fd0ea9b910a05d75621679a6fa7c73922fe24c17c5824cd3ff391015b60405180910390a15050565b6000546001600160a01b031633146110555760405162461bcd60e51b8152600401610825906126a9565b600080546040516001600160a01b03808516939216917f342827c97908e5e2f71151c08502a66d44b6f758e3ac2f1de95f02eb95f0a73591a3600080546001600160a01b0319166001600160a01b0392909216919091179055565b60006002600154036110d45760405162461bcd60e51b81526004016108259061262f565b6002600155610ce83384846119b5565b6000546001600160a01b0316331461110e5760405162461bcd60e51b8152600401610825906126a9565b600a61111e620186a06009612722565b6111289190612741565b81111561116c5760405162461bcd60e51b8152602060048201526012602482015271496e76616c69642050657263656e7461676560701b6044820152606401610825565b600b8190556040518181527fe91c6023755286bf3e349700ba6c7ec17636b08b007390b26d2e0e149b66c85d90602001610d8d565b6000546001600160a01b031633146111cb5760405162461bcd60e51b8152600401610825906126a9565b62015f908310156111db57600080fd5b62015f908210156111eb57600080fd5b62015f908110156111fb57600080fd5b60078390556009829055600881905560408051848152602081018490529081018290527f37322890d66d781059d797be5e2f27dc160a34d8bc0a8e09116cb9a773ce88ef906060016107f3565b6000610f10611554565b60006002600154036112765760405162461bcd60e51b81526004016108259061262f565b6002600155611286338381611c2c565b6001805592915050565b6000546001600160a01b031633146112ba5760405162461bcd60e51b8152600401610825906126a9565b6001600160a01b0381166112e05760405162461bcd60e51b815260040161082590612666565b600a80546001600160a01b0319166001600160a01b0383169081179091556040519081527fffb40bfdfd246e95f543d08d9713c339f1d90fa9265e39b4f562f9011d7c919f90602001610d8d565b6002600154036113505760405162461bcd60e51b81526004016108259061262f565b60026001556000546001600160a01b0316331461137f5760405162461bcd60e51b8152600401610825906126a9565b6001600160a01b0381166113a55760405162461bcd60e51b815260040161082590612666565b6001600160a01b0381166000908152600360205260409020546113f85760405162461bcd60e51b815260206004820152600b60248201526a16995c9bc8105b5bdd5b9d60aa1b6044820152606401610825565b6001600160a01b0381166000908152600560209081526040808320805460ff19166001179055600390915290205461143290829081611c2c565b506001600160a01b038116600081815260056020908152604091829020805460ff1916905590519182527f454fcc66032b4de006483c9f681cd97d7c4cc4c285b201a55fddc6faa2303e5e910160405180910390a15060018055565b6000546001600160a01b031633146114b85760405162461bcd60e51b8152600401610825906126a9565b60065460ff161561150b5760405162461bcd60e51b815260206004820152601760248201527f546f6b656e20416c7265616479204163746976617465640000000000000000006044820152606401610825565b6006805460ff191660011790556040517f43f7deefc1f4e825772604a0bc01b8362eb1eef895e6bd4db39bfab68c1e94c89061154a9043815260200190565b60405180910390a1565b600060025460001461157a57610f10600254610f71670de0b6b3a7640000610f6b610e85565b50670de0b6b3a764000090565b6000620186a0600b548361159b9190612722565b6115a59190612741565b90506000811180156115c15750600a546001600160a01b031615155b156107fd57600a546107fd906001600160a01b0316826121cc565b6040805180820182526014815273496e73756666696369656e742042616c616e636560601b6020808301919091526001600160a01b03851660009081526003909152919091205461162e918390611984565b6001600160a01b038316600090815260036020908152604091829020929092558051808201909152600f81526e4e6567617469766520537570706c7960881b91810191909152600254611682918390611984565b6002556040518181526000906001600160a01b03841690600080516020612793833981519152906020015b60405180910390a35050565b6000806116c4610e85565b600c546040519192506000916001600160a01b039091169047908381818185875af1925050503d8060008114611716576040519150601f19603f3d011682016040523d82523d6000602084013e61171b565b606091505b505090508061176c5760405162461bcd60e51b815260206004820152601a60248201527f4661696c757265204f6e205a6170706572205472616e736665720000000000006044820152606401610825565b6000611776610e85565b90508281116117b75760405162461bcd60e51b815260206004820152600d60248201526c16995c9bc8149958d95a5d9959609a1b6044820152606401610825565b6117c18584612763565b8110156118035760405162461bcd60e51b815260206004820152601060248201526f125b9cdd59999a58da595b9d0813dd5d60821b6044820152606401610825565b61180d838261277b565b95945050505050565b6000806002546000146118415761183c84610f718760025461210890919063ffffffff16565b611843565b845b336000908152600560205260408120549192509060ff1661187f5761187a620186a0610f716007548561210890919063ffffffff16565b6118b5565b60408051808201909152601181527026b4b734b6bab69022bc32b6b83a34b7b760791b60208201526118b5908390606490611984565b9050600081116118f55760405162461bcd60e51b815260206004820152600b60248201526a16995c9bc8105b5bdd5b9d60aa1b6044820152606401610825565b6118ff87826121cc565b3360009081526005602052604090205460ff1661192f5760006119228383612244565b905061192d81611587565b505b61193884611e92565b604080516001600160a01b0389168152602081018390527f30385c845b448a36257a6a1716e6ad2e1bc2cbe333cde1e69fe849ad6511adfe910160405180910390a19695505050505050565b600081848411156119a85760405162461bcd60e51b81526004016108259190612459565b50600061180d848661277b565b60006001600160a01b038316158015906119d757506001600160a01b03841615155b611a165760405162461bcd60e51b815260206004820152601060248201526f5472616e7366657220546f205a65726f60801b6044820152606401610825565b60008211611a5a5760405162461bcd60e51b81526020600482015260116024820152705472616e7366657220416d74205a65726f60781b6044820152606401610825565b6000611a64611554565b6001600160a01b0386166000908152600560205260408120549192509060ff1680611aa757506001600160a01b03851660009081526005602052604090205460ff165b611acc57611ac7620186a0610f716009548761210890919063ffffffff16565b611ace565b835b90506000611adc8583612244565b9050611b448560405180604001604052806014815260200173496e73756666696369656e742042616c616e636560601b815250600360008b6001600160a01b03166001600160a01b03168152602001908152602001600020546119849092919063ffffffff16565b6001600160a01b038089166000908152600360205260408082209390935590881681522054611b739083612286565b6001600160a01b0387166000908152600360205260409020558015611bdb57611b9b81611587565b600254611ba89082612244565b6002556040518181526000906001600160a01b038916906000805160206127938339815191529060200160405180910390a35b611be483611e92565b856001600160a01b0316876001600160a01b031660008051602061279383398151915284604051611c1791815260200190565b60405180910390a35060019695505050505050565b60008083118015611c5557506001600160a01b0384166000908152600360205260409020548311155b611c5e57600080fd5b6001600160a01b03841615801590611c7e57506001600160a01b03821615155b611c8757600080fd5b6000611c91611554565b6001600160a01b0386166000908152600560205260408120549192509060ff16611cd657611cd1620186a0610f716008548861210890919063ffffffff16565b611d0c565b60408051808201909152601181527026b4b734b6bab69022bc32b6b83a34b7b760791b6020820152611d0c908690606490611984565b90506000611d1982610f51565b3360009081526005602052604090205490915060ff16611d4c576000611d3f8784612244565b9050611d4a81611587565b505b611d5687876115dc565b60405163a9059cbb60e01b81526001600160a01b038681166004830152602482018390527f0000000000000000000000000000000000000000000000000000000000000000169063a9059cbb906044016020604051808303816000875af1158015611dc5573d6000803e3d6000fd5b505050506040513d601f19601f82011682018060405250810190611de991906126ef565b611e355760405162461bcd60e51b815260206004820152601b60248201527f556e6465726c79696e67205472616e73666572204661696c75726500000000006044820152606401610825565b611e3e83611e92565b604080516001600160a01b0389168152602081018890529081018290527ff3a670cd3af7d64b488926880889d08a8585a138ff455227af6737339a1ec2629060600160405180910390a19695505050505050565b6000611e9c611554565b905081811015611ee25760405162461bcd60e51b8152602060048201526011602482015270141c9a58d94810d85b9b9bdd0811985b1b607a1b6044820152606401610825565b6002546040805184815260208101849052908101919091527f046aa811b2923fd55b4ca06375b4045117d4584c66fc40880a8ab8ee32d88ed19060600161101f565b60065460009060ff1680611faa5750306001600160a01b031663893d20e86040518163ffffffff1660e01b8152600401602060405180830381865afa158015611f71573d6000803e3d6000fd5b505050506040513d601f19601f82011682018060405250810190611f95919061268c565b6001600160a01b0316336001600160a01b0316145b611fec5760405162461bcd60e51b8152602060048201526013602482015272151bdad95b88139bdd081058dd1a5d985d1959606a1b6044820152606401610825565b6040516370a0823160e01b81523360048201526000907f00000000000000000000000000000000000000000000000000000000000000006001600160a01b0316906370a0823190602401602060405180830381865afa158015612053573d6000803e3d6000fd5b505050506040513d601f19601f8201168201806040525081019061207791906126d6565b90506000811180156120895750808411155b6120cc5760405162461bcd60e51b8152602060048201526014602482015273496e73756666696369656e742042616c616e636560601b6044820152606401610825565b60006120d6611554565b905060006120e2610e85565b905060006120ef876122e5565b90506120fd86828486611816565b979650505050505050565b60008260000361211a575060006109fe565b60006121268385612722565b9050826121338583612741565b14610bcb5760405162461bcd60e51b815260206004820152602160248201527f536166654d6174683a206d756c7469706c69636174696f6e206f766572666c6f6044820152607760f81b6064820152608401610825565b6000610bcb83836040518060400160405280601a81526020017f536166654d6174683a206469766973696f6e206279207a65726f00000000000081525061242b565b6001600160a01b0382166000908152600360205260409020546121ef9082612286565b6001600160a01b0383166000908152600360205260409020556002546122159082612286565b6002556040518181526001600160a01b03831690600090600080516020612793833981519152906020016116ad565b6000610bcb83836040518060400160405280601e81526020017f536166654d6174683a207375627472616374696f6e206f766572666c6f770000815250611984565b6000806122938385612763565b905083811015610bcb5760405162461bcd60e51b815260206004820152601b60248201527f536166654d6174683a206164646974696f6e206f766572666c6f7700000000006044820152606401610825565b6000806122f0610e85565b6040516323b872dd60e01b8152336004820152306024820152604481018590529091507f00000000000000000000000000000000000000000000000000000000000000006001600160a01b0316906323b872dd906064016020604051808303816000875af1158015612366573d6000803e3d6000fd5b505050506040513d601f19601f8201168201806040525081019061238a91906126ef565b6123ce5760405162461bcd60e51b81526020600482015260156024820152744661696c757265205472616e736665722046726f6d60581b6044820152606401610825565b60006123d8610e85565b90508181116124195760405162461bcd60e51b815260206004820152600d60248201526c16995c9bc8149958d95a5d9959609a1b6044820152606401610825565b612423828261277b565b949350505050565b6000818361244c5760405162461bcd60e51b81526004016108259190612459565b50600061180d8486612741565b600060208083528351808285015260005b818110156124865785810183015185820160400152820161246a565b81811115612498576000604083870101525b50601f01601f1916929092016040019392505050565b6001600160a01b03811681146124c357600080fd5b50565b600080604083850312156124d957600080fd5b82356124e4816124ae565b946020939093013593505050565b60006020828403121561250457600080fd5b8135610bcb816124ae565b60008060006060848603121561252457600080fd5b833561252f816124ae565b9250602084013561253f816124ae565b929592945050506040919091013590565b6000806040838503121561256357600080fd5b823591506020830135612575816124ae565b809150509250929050565b60006020828403121561259257600080fd5b5035919050565b80151581146124c357600080fd5b600080604083850312156125ba57600080fd5b82356125c5816124ae565b9150602083013561257581612599565b6000806000606084860312156125ea57600080fd5b505081359360208301359350604090920135919050565b6000806040838503121561261457600080fd5b823561261f816124ae565b91506020830135612575816124ae565b6020808252601f908201527f5265656e7472616e637947756172643a207265656e7472616e742063616c6c00604082015260600190565b6020808252600c908201526b5a65726f204164647265737360a01b604082015260600190565b60006020828403121561269e57600080fd5b8151610bcb816124ae565b60208082526013908201527221b0b63632b91034b9903737ba1037bbb732b960691b604082015260600190565b6000602082840312156126e857600080fd5b5051919050565b60006020828403121561270157600080fd5b8151610bcb81612599565b634e487b7160e01b600052601160045260246000fd5b600081600019048311821515161561273c5761273c61270c565b500290565b60008261275e57634e487b7160e01b600052601260045260246000fd5b500490565b600082198211156127765761277661270c565b500190565b60008282101561278d5761278d61270c565b50039056feddf252ad1be2c89b69c2b068fc378daa952ba7f163c4a11628f55a4df523b3efa2646970667358221220444e5140ba973b40db2ffbd322f183a0b33d2cf146a3b38c829bbe5cdf8ddb3b64736f6c634300080e0033",
  "linkReferences": {},
  "deployedLinkReferences": {}
}