{
  "_format": "hh-sol-artifact-1",
  "contractName": "LPZapper",
  "sourceName": "contracts/LPZapper.sol",
  "abi": [
    {
      "inputs": [],
      "name": "GRAPE",
      "outputs": [
        {
          "internalType": "address",
          "name": "",
          "type": "address"
        }
      ],
      "stateMutability": "view",
      "type": "function"
    },
    {
      "inputs": [],
      "name": "LP",
      "outputs": [
        {
          "internalType": "address",
          "name": "",
          "type": "address"
        }
      ],
      "stateMutability": "view",
      "type": "function"
    },
    {
      "inputs": [],
      "name": "MIM",
      "outputs": [
        {
          "internalType": "address",
          "name": "",
          "type": "address"
        }
      ],
      "stateMutability": "view",
      "type": "function"
    },
    {
      "inputs": [],
      "name": "Underlying",
      "outputs": [
        {
          "internalType": "contract IVault",
          "name": "",
          "type": "address"
        }
      ],
      "stateMutability": "view",
      "type": "function"
    },
    {
      "inputs": [],
      "name": "XGRAPE",
      "outputs": [
        {
          "internalType": "address",
          "name": "",
          "type": "address"
        }
      ],
      "stateMutability": "view",
      "type": "function"
    },
    {
      "inputs": [],
      "name": "router",
      "outputs": [
        {
          "internalType": "contract IUniswapV2Router02",
          "name": "",
          "type": "address"
        }
      ],
      "stateMutability": "view",
      "type": "function"
    },
    {
      "inputs": [
        {
          "internalType": "address",
          "name": "token_",
          "type": "address"
        },
        {
          "internalType": "uint256",
          "name": "amount",
          "type": "uint256"
        },
        {
          "internalType": "uint256",
          "name": "minOut",
          "type": "uint256"
        }
      ],
      "name": "zap",
      "outputs": [],
      "stateMutability": "nonpayable",
      "type": "function"
    },
    {
      "inputs": [
        {
          "internalType": "uint256",
          "name": "minOut",
          "type": "uint256"
        }
      ],
      "name": "zapWithAvax",
      "outputs": [],
      "stateMutability": "payable",
      "type": "function"
    },
    {
      "stateMutability": "payable",
      "type": "receive"
    }
  ],
  "bytecode": "0x608060405234801561001057600080fd5b506116d8806100206000396000f3fe60806040526004361061007f5760003560e01c8063d5af89f81161004e578063d5af89f814610141578063daec383d14610154578063e53a8a5f1461017c578063f887ea40146101a457600080fd5b8063a55f98fa1461008b578063aa3b94ff146100cf578063b6fccf8a146100f1578063bb614acc1461011957600080fd5b3661008657005b600080fd5b34801561009757600080fd5b506100b37395ced7c63ea990588f3fd01cdde25247d04b8d9881565b6040516001600160a01b03909116815260200160405180910390f35b3480156100db57600080fd5b506100ef6100ea3660046113b9565b6101cc565b005b3480156100fd57600080fd5b506100b3739076c15d7b2297723eceac17419d506ae320cbf181565b34801561012557600080fd5b506100b3730da1dc567d81925cff22df74c6b9e294e9e1c3a581565b6100ef61014f3660046113ee565b6102e4565b34801561016057600080fd5b506100b373130966628846bfd36ff31a822705796e8cb8c18d81565b34801561018857600080fd5b506100b3735541d83efad1f281571b343977648b75d95cdac281565b3480156101b057600080fd5b506100b373c7f372c62238f6a5b79136a9e5d16a2fd7a3f0f581565b6101d683836103ec565b6101df836104a7565b6040516370a0823160e01b8152306004820152600090730da1dc567d81925cff22df74c6b9e294e9e1c3a5906370a0823190602401602060405180830381865afa158015610231573d6000803e3d6000fd5b505050506040513d601f19601f820116820180604052508101906102559190611407565b9050818110156102995760405162461bcd60e51b815260206004820152600a602482015269135a5b8813140813dd5d60b21b60448201526064015b60405180910390fd5b6102a2816104ee565b6102d57395ced7c63ea990588f3fd01cdde25247d04b8d98735541d83efad1f281571b343977648b75d95cdac2336105fb565b6102de336108ba565b50505050565b6102ee60006104a7565b6040516370a0823160e01b8152306004820152600090730da1dc567d81925cff22df74c6b9e294e9e1c3a5906370a0823190602401602060405180830381865afa158015610340573d6000803e3d6000fd5b505050506040513d601f19601f820116820180604052508101906103649190611407565b9050818110156103a35760405162461bcd60e51b815260206004820152600a602482015269135a5b8813140813dd5d60b21b6044820152606401610290565b6103ac816104ee565b6103df7395ced7c63ea990588f3fd01cdde25247d04b8d98735541d83efad1f281571b343977648b75d95cdac2336105fb565b6103e8336108ba565b5050565b6040516323b872dd60e01b8152336004820152306024820152604481018290526001600160a01b038316906323b872dd906064016020604051808303816000875af115801561043f573d6000803e3d6000fd5b505050506040513d601f19601f820116820180604052508101906104639190611420565b6103e85760405162461bcd60e51b81526020600482015260156024820152744661696c757265205472616e736665722046726f6d60581b6044820152606401610290565b6104b081610bd0565b6104e373130966628846bfd36ff31a822705796e8cb8c18d735541d83efad1f281571b343977648b75d95cdac2306105fb565b6104eb611239565b50565b60405163095ea7b360e01b81527395ced7c63ea990588f3fd01cdde25247d04b8d98600482015260248101829052730da1dc567d81925cff22df74c6b9e294e9e1c3a59063095ea7b3906044016020604051808303816000875af115801561055a573d6000803e3d6000fd5b505050506040513d601f19601f8201168201806040525081019061057e9190611420565b50604051637314f10960e01b8152600481018290523060248201527395ced7c63ea990588f3fd01cdde25247d04b8d9890637314f109906044016020604051808303816000875af11580156105d7573d6000803e3d6000fd5b505050506040513d601f19601f820116820180604052508101906103e89190611407565b6040516370a0823160e01b81523060048201526000906001600160a01b038516906370a0823190602401602060405180830381865afa158015610642573d6000803e3d6000fd5b505050506040513d601f19601f820116820180604052508101906106669190611407565b6040516370a0823160e01b81523060048201529091506000906001600160a01b038516906370a0823190602401602060405180830381865afa1580156106b0573d6000803e3d6000fd5b505050506040513d601f19601f820116820180604052508101906106d49190611407565b60405163095ea7b360e01b815273c7f372c62238f6a5b79136a9e5d16a2fd7a3f0f56004820152602481018490529091506001600160a01b0386169063095ea7b3906044016020604051808303816000875af1158015610738573d6000803e3d6000fd5b505050506040513d601f19601f8201168201806040525081019061075c9190611420565b5060405163095ea7b360e01b815273c7f372c62238f6a5b79136a9e5d16a2fd7a3f0f56004820152602481018290526001600160a01b0385169063095ea7b3906044016020604051808303816000875af11580156107be573d6000803e3d6000fd5b505050506040513d601f19601f820116820180604052508101906107e29190611420565b5073c7f372c62238f6a5b79136a9e5d16a2fd7a3f0f563e8e33700868685856000808a61081042600a61145f565b60405160e08a901b6001600160e01b03191681526001600160a01b039889166004820152968816602488015260448701959095526064860193909352608485019190915260a484015290921660c482015260e4810191909152610104016060604051808303816000875af115801561088c573d6000803e3d6000fd5b505050506040513d601f19601f820116820180604052508101906108b09190611477565b5050505050505050565b6040516370a0823160e01b815230600482015260009073130966628846bfd36ff31a822705796e8cb8c18d906370a0823190602401602060405180830381865afa15801561090c573d6000803e3d6000fd5b505050506040513d601f19601f820116820180604052508101906109309190611407565b6040516370a0823160e01b8152306004820152909150600090735541d83efad1f281571b343977648b75d95cdac2906370a0823190602401602060405180830381865afa158015610985573d6000803e3d6000fd5b505050506040513d601f19601f820116820180604052508101906109a99190611407565b6040516370a0823160e01b81523060048201529091506000907395ced7c63ea990588f3fd01cdde25247d04b8d98906370a0823190602401602060405180830381865afa1580156109fe573d6000803e3d6000fd5b505050506040513d601f19601f82011682018060405250810190610a229190611407565b90508215610ab15760405163a9059cbb60e01b81526001600160a01b03851660048201526024810184905273130966628846bfd36ff31a822705796e8cb8c18d9063a9059cbb906044016020604051808303816000875af1158015610a8b573d6000803e3d6000fd5b505050506040513d601f19601f82011682018060405250810190610aaf9190611420565b505b8115610b3e5760405163a9059cbb60e01b81526001600160a01b038516600482015260248101839052735541d83efad1f281571b343977648b75d95cdac29063a9059cbb906044016020604051808303816000875af1158015610b18573d6000803e3d6000fd5b505050506040513d601f19601f82011682018060405250810190610b3c9190611420565b505b80156102de5760405163a9059cbb60e01b81526001600160a01b0385166004820152602481018290527395ced7c63ea990588f3fd01cdde25247d04b8d989063a9059cbb906044016020604051808303816000875af1158015610ba5573d6000803e3d6000fd5b505050506040513d601f19601f82011682018060405250810190610bc99190611420565b5050505050565b73130966628846bfd36ff31a822705796e8cb8c18c196001600160a01b03821601610e1b576040516370a0823160e01b8152306004828101919091526000916001600160a01b038416906370a0823190602401602060405180830381865afa158015610c40573d6000803e3d6000fd5b505050506040513d601f19601f82011682018060405250810190610c649190611407565b610c6f9060036114a5565b610c7991906114c4565b60405163095ea7b360e01b815273c7f372c62238f6a5b79136a9e5d16a2fd7a3f0f56004820152602481018290529091506001600160a01b0383169063095ea7b3906044016020604051808303816000875af1158015610cdd573d6000803e3d6000fd5b505050506040513d601f19601f82011682018060405250810190610d019190611420565b506040805160028082526060820183526000926020830190803683370190505090508281600081518110610d3757610d376114fc565b60200260200101906001600160a01b031690816001600160a01b031681525050735541d83efad1f281571b343977648b75d95cdac281600181518110610d7f57610d7f6114fc565b6001600160a01b039092166020928302919091019091015273c7f372c62238f6a5b79136a9e5d16a2fd7a3f0f5635c11d7958360008430610dc142600a61145f565b6040518663ffffffff1660e01b8152600401610de1959493929190611556565b600060405180830381600087803b158015610dfb57600080fd5b505af1158015610e0f573d6000803e3d6000fd5b506104eb945050505050565b735541d83efad1f281571b343977648b75d95cdac1196001600160a01b03821601610fbf576040516370a0823160e01b8152306004828101919091526000916001600160a01b038416906370a0823190602401602060405180830381865afa158015610e8b573d6000803e3d6000fd5b505050506040513d601f19601f82011682018060405250810190610eaf9190611407565b610eb991906114c4565b60405163095ea7b360e01b815273c7f372c62238f6a5b79136a9e5d16a2fd7a3f0f56004820152602481018290529091506001600160a01b0383169063095ea7b3906044016020604051808303816000875af1158015610f1d573d6000803e3d6000fd5b505050506040513d601f19601f82011682018060405250810190610f419190611420565b506040805160028082526060820183526000926020830190803683370190505090508281600081518110610f7757610f776114fc565b60200260200101906001600160a01b031690816001600160a01b03168152505073130966628846bfd36ff31a822705796e8cb8c18d81600181518110610d7f57610d7f6114fc565b60408051600280825260608201835260009260208301908036833701905050905073c7f372c62238f6a5b79136a9e5d16a2fd7a3f0f56001600160a01b031663ad5c46486040518163ffffffff1660e01b8152600401602060405180830381865afa158015611032573d6000803e3d6000fd5b505050506040513d601f19601f820116820180604052508101906110569190611592565b81600081518110611069576110696114fc565b60200260200101906001600160a01b031690816001600160a01b03168152505073130966628846bfd36ff31a822705796e8cb8c18d816001815181106110b1576110b16114fc565b6001600160a01b039092166020928302919091019091015273c7f372c62238f6a5b79136a9e5d16a2fd7a3f0f5637ff36ab56110ee6004476114c4565b600084306110fd42600a61145f565b6040518663ffffffff1660e01b815260040161111c94939291906115af565b60006040518083038185885af115801561113a573d6000803e3d6000fd5b50505050506040513d6000823e601f3d908101601f1916820160405261116391908101906115e4565b50735541d83efad1f281571b343977648b75d95cdac28160018151811061118c5761118c6114fc565b6001600160a01b039092166020928302919091019091015273c7f372c62238f6a5b79136a9e5d16a2fd7a3f0f5637ff36ab547600084306111ce42600a61145f565b6040518663ffffffff1660e01b81526004016111ed94939291906115af565b60006040518083038185885af115801561120b573d6000803e3d6000fd5b50505050506040513d6000823e601f3d908101601f1916820160405261123491908101906115e4565b505050565b6040516370a0823160e01b8152306004820152600090739076c15d7b2297723eceac17419d506ae320cbf1906370a0823190602401602060405180830381865afa15801561128b573d6000803e3d6000fd5b505050506040513d601f19601f820116820180604052508101906112af9190611407565b60405163095ea7b360e01b8152730da1dc567d81925cff22df74c6b9e294e9e1c3a5600482015260248101829052909150739076c15d7b2297723eceac17419d506ae320cbf19063095ea7b3906044016020604051808303816000875af115801561131e573d6000803e3d6000fd5b505050506040513d601f19601f820116820180604052508101906113429190611420565b5060405163b6b55f2560e01b815260048101829052730da1dc567d81925cff22df74c6b9e294e9e1c3a59063b6b55f2590602401600060405180830381600087803b15801561139057600080fd5b505af1158015610bc9573d6000803e3d6000fd5b6001600160a01b03811681146104eb57600080fd5b6000806000606084860312156113ce57600080fd5b83356113d9816113a4565b95602085013595506040909401359392505050565b60006020828403121561140057600080fd5b5035919050565b60006020828403121561141957600080fd5b5051919050565b60006020828403121561143257600080fd5b8151801515811461144257600080fd5b9392505050565b634e487b7160e01b600052601160045260246000fd5b6000821982111561147257611472611449565b500190565b60008060006060848603121561148c57600080fd5b8351925060208401519150604084015190509250925092565b60008160001904831182151516156114bf576114bf611449565b500290565b6000826114e157634e487b7160e01b600052601260045260246000fd5b500490565b634e487b7160e01b600052604160045260246000fd5b634e487b7160e01b600052603260045260246000fd5b600081518084526020808501945080840160005b8381101561154b5781516001600160a01b031687529582019590820190600101611526565b509495945050505050565b85815284602082015260a06040820152600061157560a0830186611512565b6001600160a01b0394909416606083015250608001529392505050565b6000602082840312156115a457600080fd5b8151611442816113a4565b8481526080602082015260006115c86080830186611512565b6001600160a01b03949094166040830152506060015292915050565b600060208083850312156115f757600080fd5b825167ffffffffffffffff8082111561160f57600080fd5b818501915085601f83011261162357600080fd5b815181811115611635576116356114e6565b8060051b604051601f19603f8301168101818110858211171561165a5761165a6114e6565b60405291825284820192508381018501918883111561167857600080fd5b938501935b828510156116965784518452938501939285019261167d565b9897505050505050505056fea2646970667358221220c01718cf9db137649b266c259b5afa2c0552b56d8c4b506c71356193ef63d1e864736f6c634300080e0033",
  "linkReferences": {},
  "deployedLinkReferences": {}
}